:100000000C946E000C9496000C9496000C94960040
:100010000C9496000C9496000C9496000C94960008
:100020000C9496000C9496000C9496000C949600F8
:100030000C9496000C9496000C9496000C949600E8
:100040000C9412090C9496000C94ED050C941F0668
:100050000C9496000C9496000C9496000C949600C8
:100060000C9496000C949600030305030703090300
:100070000B030D030F0311031303150317031903D8
:100080001B031D031F0321030000000800020100E1
:100090000003040700000000000000000102040843
:1000A00010204080010204081020010204081020E2
:1000B000040404040404040402020202020203030E
:1000C0000303030300000000250028002B000000AC
:1000D0000000240027002A0093034F0611241FBEAE
:1000E000CFEFD8E0DEBFCDBF13E0A0E0B1E0E2E2A9
:1000F000FAE102C005900D92AA34B107D9F724E0C5
:10010000AAE4B3E001C01D92AC37B207E1F710E0FA
:10011000CCEDD0E004C02297FE010E94BF0AC83D8A
:10012000D107C9F70E9403090C940F0D0C9400002D
:100130008FEF8EBD0DB407FEFDCF8EB508958EBD39
:100140000DB407FEFDCF08959BB141E050E060E0A3
:1001500070E004C0440F551F661F771F8A95D2F7C1
:10016000942B9BB98FEF0E949F009091D10399230C
:1001700039F08091CF03913011F48DBB08958FBF7A
:1001800008952CB5982F93702C7F922B9CBD9DB514
:1001900082FB882780F99E7F982B9DBD0895CF9381
:1001A000DF93EC018091D103882381F0813051F4F9
:1001B0008DB38093CF039DB38091D0038095892325
:1001C0008DBB04C08FB78093CF03F89480E58CBDBE
:1001D00081E08DBD8A819CB59F7D9CBD9CB5937F40
:1001E0009CBD0E94C1008BB141E050E060E070E036
:1001F000088004C0440F551F661F771F0A94D2F76A
:10020000409548234BB9DF91CF910895DF92EF924B
:10021000FF920F931F93CF93DF9300D000D0CDB701
:10022000DEB78C01D62E29833A834B835C830E94F0
:10023000CF000E945C097B010E9498008F3F39F03B
:100240000E945C096E197F0968357240A8F38D2DF4
:1002500080640E949F008C810E949F008B810E947D
:100260009F008A810E949F0089810E949F00D11077
:1002700002C085E901C087E80E949F009CE0D91276
:1002800002C00E949800F12C0E949800F80183831C
:1002900087FF05C0FFEFFF1611F0F394F5CF0F9025
:1002A0000F900F900F90DF91CF911F910F91FF90C2
:1002B000EF90DF900895BF92CF92DF92EF92FF927E
:1002C0000F931F93CF93DF93EC01B42E1C821982FE
:1002D00068830E945C098B01888190E0FC01E456F0
:1002E000FF4F2491FC01E055FF4F8491882399F042
:1002F00090E0880F991FFC01E253FF4FA591B49144
:100300008C539F4FFC01859194919FB7F8948C91E9
:10031000822B8C939FBF2BB181E090E0A0E0B0E0F6
:10032000088004C0880F991FAA1FBB1F0A94D2F728
:10033000282B2BB90E949604BA828CB58F7D8CBD78
:100340008CB5837F8CBD8B2D0E94C1002AE0F22EDC
:100350008FEF0E949F00FA94D9F720E030E0A901C6
:1003600060E0CE010E940601813049F00E945C09E4
:10037000601B710B613D774080F381E051C02AEA38
:1003800031E040E050E068E0CE010E940601853097
:1003900011F481E00AC094E0F92E0E9498008B834A
:1003A000FA94D9F78A3A59F482E08C838C818230AE
:1003B00079F4C12CD12CE12C80E4F82E0CC00E94E1
:1003C0005C09601B710B613D7740C8F282E028C078
:1003D000C12CD12C760120E030E0A90167E3CE01E9
:1003E0000E940601A701960169E2CE010E94060162
:1003F000882349F00E945C09601B710B613D7740C6
:1004000050F38AE00DC08C818230E9F420E030E0C6
:10041000A9016AE3CE010E940601882339F088E031
:10042000898388810E94A40080E012C00E94980005
:10043000807C803C11F483E08C830E9498000E94B1
:1004400098000E94980088810E94A400BA8281E0EE
:10045000DF91CF911F910F91FF90EF90DF90CF90A0
:10046000BF900895CF9326E040E855E260E070E049
:1004700082ED93E00E94910566E071E082ED93E0E9
:100480000E94FB0667E171E082ED93E00E94DE06C8
:1004900020E130E041E050E060E070E082ED93E088
:1004A0000E94E3076BE271E082ED93E00E94DE06BA
:1004B0004AE050E060E870E082ED93E00E94B80707
:1004C0006CE371E082ED93E00E94DE064AE050E0CA
:1004D00061E070E082ED93E00E94B80763E571E0AF
:1004E00082ED93E00E94DE06E6EAF0E02491EAEB7A
:1004F000F0E08491882399F090E0880F991FFC0127
:10050000E253FF4FA591B4918C539F4FFC0185910D
:1005100094919FB7F8948C91822B8C939FBF42E06B
:1005200064E08AE493E00E945B01811115C06CE6EF
:1005300071E082ED93E00E94FB0664E971E082EDD8
:1005400093E00E94FB066DEA71E082ED93E00E9469
:10055000FB0667EC71E022C06BE072E082ED93E095
:100560000E94FB068AE493E00E94CF00C8E00E944C
:1005700098008F3F21F0C150D1F7C1E001C0C0E029
:1005800080914A030E94A400C111ECCF64E372E0A1
:1005900082ED93E00E94FB066BE472E082ED93E053
:1005A000CF910C94FB06CF92DF92EF92FF920F93C4
:1005B0001F93CF93DF9300D0CDB7DEB78C01F62E1B
:1005C0006FEA72E00E9463088F2D82958F70898395
:1005D0008F2D8F708A836BE572E0C8010E94C50879
:1005E000CE0101967C016E0193E0C90ED11CF7018A
:1005F00041917F0150E04031510538F5FA01EC5C42
:10060000FF4F0C94BD0A60E31DC061E31BC062E3B1
:1006100019C063E317C064E315C065E313C066E364
:1006200011C067E30FC068E30DC069E30BC061E66A
:1006300009C062E607C063E605C064E603C065E67C
:1006400001C066E6C8010E94D508EC14FD0479F6E5
:10065000C8010F900F90DF91CF911F910F91FF90E4
:10066000EF90DF90CF900895CF92DF92EF92FF92BC
:100670000F931F93CF93DF93CDB7DEB72C970FB6B1
:10068000F894DEBF0FBECDBF8C01C12CD12C7601FA
:10069000D701C6018F709927AA27BB27892B8A2BE0
:1006A0008B2B31F46EEA72E082ED93E00E94DE065D
:1006B000F80161918F01CE0107960E94D302BE011D
:1006C000695F7F4FCE0101960E9490086AE972E04F
:1006D000CE0101960E94E808BC0182ED93E00E94E1
:1006E000D006CE0101960E94F507CE0107960E9422
:1006F000F507FFEFCF1ADF0AEF0AFF0A80E8C816F6
:10070000D104E104F10421F62C960FB6F894DEBF73
:100710000FBECDBFDF91CF911F910F91FF90EF9052
:10072000DF90CF90089510924A0389E180934B03A4
:1007300010924C0310924D0310924E030895CF93E4
:10074000DF9382ED93E00E94C70497FFFACF6EE536
:1007500072E082ED93E00E94DE0682ED93E00E945B
:10076000C70418161906CCF760E971E080E090E044
:100770000E948B09AFE4B3E0EAEBF2E081918D9344
:1007800023E0EA33F207D1F780914E03833029F456
:1007900021E030E040E050E004C020E032E040E002
:1007A00050E068E18AE493E00E940601882321F08A
:1007B00086E080934B0322C08EEF0E949F00EFE4FF
:1007C000F3E081918EBD0DB407FEFDCF85E0EF34DF
:1007D000F807B9F78FEF0E949F008FEF0E949F00EC
:1007E0000E94980080934D038F71853039F083E12A
:1007F00080934B0380914A030E94A40080914A0396
:100800000E94A400EFE4F3E0119223E0EF3CF20732
:10081000D9F780914E03833029F421E030E040E0A5
:1008200050E004C020E032E040E050E061E18AE4C2
:1008300093E00E9406018823D1F084E080934B036B
:1008400080914A030E94A4006CE772E082ED93E07D
:100850000E94DE064AE050E060E070E082ED93E046
:100860000E94DD07EAEBF2E08FE493E02EC00E94E5
:100870005C09EB010E94980080934D038F3F49F47F
:100880000E945C096C1B7D0B6D32714098F381E115
:10089000D5CF8E3F11F08FE0D1CFEFE4F3E09FEFA3
:1008A0009EBD0DB407FEFDCF8EB5819325E0EF34DC
:1008B000F207B1F710924D030E9498000E94980031
:1008C000BFCF23E08F3C920729F1EC0101962191E3
:1008D00038813217B1F32097E9F06AE872E082EDCF
:1008E00093E00E94DE066CE972E082ED93E00E94E4
:1008F000DE066FE473E06C1B7D0B4AE050E082ED96
:1009000093E00E94B0076DEA72E082ED93E00E94EE
:10091000DE0606C060EB72E082ED93E00E94FB060B
:100920008FE493E0DF91CF910C94340361E08AE08F
:100930000E94500A61E08AE00E94170A8CB580612B
:100940008CBD8CB580648CBD61E08DE00E94170A7F
:1009500061E08BE00C94170AFC01818D228D90E000
:10096000805C9F4F821B910960E470E00E94870ABF
:100970000895FC01918D828D981731F0828DE80FDA
:10098000F11D858D90E008958FEF9FEF0895FC0194
:10099000918D828D981761F0828DDF01A80FB11DB6
:1009A0005D968C91928D9F5F9F73928F90E00895DA
:1009B0008FEF9FEF089585E496E0892B49F080E062
:1009C00090E0892B29F00E94450681110C940000CB
:1009D0000895FC01848DDF01A80FB11DA35ABF4FFC
:1009E0002C91848D90E001968F739927848FA6892E
:1009F000B7892C93A089B1898C9180648C93938D55
:100A0000848D981306C00288F389E02D80818F7D44
:100A100080830895CF93DF93EC01888D8823C9F0FC
:100A2000EA89FB89808185FD05C0A889B9898C91F7
:100A300086FD0FC00FB607FCF5CF808185FFF2CF92
:100A4000A889B9898C9185FFEDCFCE010E94E90478
:100A5000E7CFDF91CF910895CF92DF92FF920F936E
:100A60001F93CF93DF931F92CDB7DEB76C01DC01EC
:100A70005B969C915B975C968C915C97981307C0F2
:100A80005096ED91FC915197808185FD32C0F60121
:100A9000038D10E00F5F1F4F0F731127F02EF6012B
:100AA000848DF81211C00FB607FCF9CFD60150960D
:100AB000ED91FC915197808185FFF1CFC60169834B
:100AC0000E94E9046981EBCF838DE80FF11DE35AA1
:100AD000FF4F6083D6015B960C935B975296ED9126
:100AE000FC91539780818062808381E058968C933B
:100AF0000DC0D6015696ED91FC91579760835096A4
:100B0000ED91FC91519780818064808381E090E039
:100B10000F90DF91CF911F910F91FF90DF90CF90B9
:100B20000895BF92CF92DF92EF92FF92CF93DF931F
:100B3000EC016A017B01B22E60E874E88EE190E07E
:100B4000A70196010E949B0A2150310941095109D0
:100B50005695479537952795E889F98982E08083EE
:100B6000211580E1380798F0E889F989108260E45E
:100B700072E48FE090E0A70196010E949B0A215049
:100B80003109410951095695479537952795EC85C7
:100B9000FD853083EE85FF852083188EEC89FD89E5
:100BA000B082EA89FB89808180618083EA89FB8940
:100BB000808188608083EA89FB8980818068808366
:100BC000EA89FB8980818F7D8083DF91CF91FF90BF
:100BD000EF90DF90CF90BF9008951F920F920FB6C5
:100BE0000F9211242F938F939F93EF93FF93E09194
:100BF000E203F091E3038081E091E803F091E903DF
:100C000082FD12C090818091EB038F5F8F732091E2
:100C1000EC03821751F0E091EB03F0E0EE52FC4F51
:100C2000958F8093EB0301C08081FF91EF919F919D
:100C30008F912F910F900FBE0F901F9018951F92BC
:100C40000F920FB60F9211242F933F934F935F9300
:100C50006F937F938F939F93AF93BF93EF93FF9384
:100C600082ED93E00E94E904FF91EF91BF91AF9173
:100C70009F918F917F916F915F914F913F912F91B4
:100C80000F900FBE0F901F90189582ED93E00E9479
:100C9000AC0421E0892B09F420E0822F0895109202
:100CA000D5031092D40388EE93E0A0E0B0E08093E7
:100CB000D6039093D703A093D803B093D9038EE3C0
:100CC00093E09093D3038093D20385EC90E09093CC
:100CD000DF038093DE0384EC90E09093E103809344
:100CE000E00380EC90E09093E3038093E20381ECD7
:100CF00090E09093E5038093E40382EC90E090937E
:100D0000E7038093E60386EC90E09093E9038093F9
:100D1000E8031092EB031092EC031092ED03109293
:100D2000EE030895CF92DF92EF92FF920F931F93FD
:100D3000CF93DF936C017A01EB01E60EF71E00E022
:100D400010E0CE15DF0561F06991D601ED91FC91BF
:100D50000190F081E02DC6010995080F191FF1CF10
:100D6000C801DF91CF911F910F91FF90EF90DF901D
:100D7000CF9008956115710581F0DB010D90002081
:100D8000E9F7AD0141505109461B570BDC01ED91CC
:100D9000FC910280F381E02D099480E090E00895B9
:100DA000DC01ED91FC91DB0114964D915C9115975E
:100DB0006D917C910280F381E02D09940C94BA0628
:100DC000DC01ED91FC910190F081E02D09940F93ED
:100DD0001F93CF93DF93EC016DE00E94E0068C013E
:100DE0006AE0CE010E94E006800F911FDF91CF9153
:100DF0001F910F9108950F931F93CF93DF93EC01F1
:100E00000E94BA068C01CE010E94E706800F911F56
:100E1000DF91CF911F910F9108958F929F92AF9282
:100E2000BF92CF92DF92EF92FF920F931F93CF93D7
:100E3000DF93CDB7DEB7A1970FB6F894DEBF0FBE34
:100E4000CDBF7C01C42EE52FCB01D22E19A221E00B
:100E50002D1510F02AE0D22E8E010F5D1F4F8D2C24
:100E6000912CA12CB12C6C2D7E2FA50194010E94F8
:100E70009B0A8C2DD29E80191124015011098A30B1
:100E800014F4805D01C0895CF8018083211531056F
:100E90004105510521F0C22EE32FCA01E4CFB8016C
:100EA000C7010E94BA06A1960FB6F894DEBF0FBE26
:100EB000CDBFDF91CF911F910F91FF90EF90DF9009
:100EC000CF90BF90AF909F908F900895CF92DF9278
:100ED000EF92FF920F931F93CF93DF93EC016A0180
:100EE0007B012115310579F4E881F9810190F081C8
:100EF000E02D642FDF91CF911F910F91FF90EF9024
:100F0000DF90CF9009942A303105E9F477FF1AC0B9
:100F10006DE20E94E0068C0144275527BA014C1966
:100F20005D096E097F092AE0CE010E940D07800F3E
:100F3000911FDF91CF911F910F91FF90EF90DF9064
:100F4000CF9008952AE0B701A601CE01DF91CF919D
:100F50001F910F91FF90EF90DF90CF900C940D07B1
:100F60009A01AB01662757FD6095762F0C946607B2
:100F70000F931F93CF93DF93EC019A01AB01662788
:100F800057FD6095762F0E9466078C01CE010E9466
:100F9000E706800F911FDF91CF911F910F91089568
:100FA0002115310541F4DC01ED91FC910190F081B6
:100FB000E02D642F09940C940D079A01AB0160E0B9
:100FC00070E00C94D0070F931F93CF93DF93EC0145
:100FD0000E94D0078C01CE010E94E706800F911F6E
:100FE000DF91CF911F910F910895FC018081918134
:100FF0000C946F0BCF93DF93EC018881998100975C
:1010000011F00E946F0B198218821D821C821B82B4
:101010001A82DF91CF9108950F931F93CF93DF939F
:10102000EC018B016F5F7F4F888199810E94FE0BDD
:10103000009731F0998388831B830A8381E001C084
:1010400080E0DF91CF911F910F910895CF93DF93AF
:10105000EC0188819981892B29F08A819B818617EF
:10106000970760F4CE010E940C08882341F08C8120
:101070009D81892B19F4E881F981108281E0DF914B
:10108000CF910895EF92FF920F931F93CF93DF9329
:10109000EC017B018A01BA010E942608811104C07B
:1010A000CE010E94FA0707C01D830C83B701888117
:1010B00099810E94D10CCE01DF91CF911F910F91A8
:1010C000FF90EF900895FC0111821082138212822A
:1010D000158214826115710559F0FB010190002001
:1010E000E9F7AF0141505109461B570B0C944208D8
:1010F0000895CF93DF93EC01FB018617970761F00A
:10110000608171816115710529F0448155810E94CA
:10111000420802C00E94FA07CE01DF91CF910895E4
:10112000FC011182108213821282158214820C94A7
:101130007908EF92FF920F931F93CF93DF93EC0107
:101140007B010C811D816115710511F480E016C0D1
:101150004115510591F0040F151FB8010E94260892
:101160008823A1F3288139818C819D81B701820F69
:10117000931F0E94D10C1D830C8381E0DF91CF91DE
:101180001F910F91FF90EF9008956115710559F02F
:10119000FB0101900020E9F7AF0141505109461BC6
:1011A000570B0C94990880E00895CF93DF9300D0FB
:1011B000CDB7DEB769831A8241E050E0BE016F5FB0
:1011C0007F4F0E9499080F900F90DF91CF91089563
:1011D000CF93DF93EC016115710569F0FB0101907C
:1011E0000020E9F7AF0141505109461B570B0E94FF
:1011F0009908811103C0CE010E94FA07CE01DF9148
:10120000CF91089508950E94B3090E9402090E9497
:101210003202CBEDD4E00E949F032097E1F30E94BD
:10122000DB04F9CF1F920F920FB60F9211242F9368
:101230003F938F939F93AF93BF938091700490914E
:101240007104A0917204B091730430916F0426E090
:10125000230F2D3720F40296A11DB11D05C029E8EA
:10126000230F0396A11DB11D20936F04809370047A
:1012700090937104A0937204B093730480917404EA
:1012800090917504A0917604B09177040196A11D08
:10129000B11D8093740490937504A0937604B09369
:1012A0007704BF91AF919F918F913F912F910F90B4
:1012B0000FBE0F901F9018952FB7F894609170048F
:1012C0007091710480917204909173042FBF0895FE
:1012D0003FB7F8948091740490917504A0917604BE
:1012E000B091770426B5A89B05C02F3F19F0019651
:1012F000A11DB11D3FBF6627782F892F9A2F620F3E
:10130000711D811D911D43E0660F771F881F991F76
:101310004A95D1F70895CF92DF92EF92FF92CF9343
:10132000DF936B017C010E946809EB01C114D104B9
:10133000E104F10489F00E94860A0E9468096C1B8E
:101340007D0B683E734090F381E0C81AD108E10834
:10135000F108C851DC4FEACFDF91CF91FF90EF90B9
:10136000DF90CF900895789484B5826084BD84B571
:10137000816084BD85B5826085BD85B5816085BD90
:10138000EEE6F0E0808181608083E1E8F0E01082A9
:10139000808182608083808181608083E0E8F0E0EA
:1013A000808181608083E1EBF0E0808184608083D4
:1013B000E0EBF0E0808181608083EAE7F0E080810B
:1013C000846080838081826080838081816080836B
:1013D0008081806880831092C1000895833081F0FD
:1013E00028F4813099F08230A1F008958730A9F077
:1013F0008830B9F08430D1F4809180008F7D03C0B3
:10140000809180008F7780938000089584B58F77D6
:1014100002C084B58F7D84BD08958091B0008F7720
:1014200003C08091B0008F7D8093B0000895CF936A
:10143000DF9390E0FC01E456FF4F2491FC01E0555E
:10144000FF4F8491882349F190E0880F991FFC0198
:10145000E253FF4FA591B4918C539F4FFC01C5916E
:10146000D4919FB7611108C0F8948C912095822384
:101470008C93888182230AC0623051F4F8948C9155
:10148000322F309583238C938881822B888304C0EC
:10149000F8948C91822B8C939FBFDF91CF9108950C
:1014A0000F931F93CF93DF931F92CDB7DEB7282FF3
:1014B00030E0F901E857FF4F8491F901E456FF4FFE
:1014C0001491F901E055FF4F04910023C9F08823DE
:1014D00021F069830E94EE096981E02FF0E0EE0FB0
:1014E000FF1FEC53FF4FA591B4919FB7F8948C91D7
:1014F000611103C01095812301C0812B8C939FBF84
:101500000F90DF91CF911F910F910895089597FB50
:10151000072E16F4009407D077FD09D00E94C30A65
:1015200007FC05D03EF4909581959F4F08957095E6
:1015300061957F4F0895A1E21A2EAA1BBB1BFD01E6
:101540000DC0AA1FBB1FEE1FFF1FA217B307E407A2
:10155000F50720F0A21BB30BE40BF50B661F771FFA
:10156000881F991F1A9469F76095709580959095DA
:101570009B01AC01BD01CF010895EE0FFF1F059047
:10158000F491E02D0994AA1BBB1B51E107C0AA1FCF
:10159000BB1FA617B70710F0A61BB70B881F991F14
:1015A0005A95A9F780959095BC01CD010895CF93E8
:1015B000DF938230910510F482E090E0E0917A04AC
:1015C000F0917B0420E030E0A0E0B0E0309739F10A
:1015D0004081518148175907B8F04817590771F4ED
:1015E00082819381109729F013969C938E93129782
:1015F0002CC090937B0480937A0427C02115310579
:1016000031F04217530718F0A901DB0101C0EF01C7
:101610009A01BD01DF010280F381E02DD7CF2115B2
:101620003105F9F0281B390B2430310580F48A810B
:101630009B816115710521F0FB019383828304C0B6
:1016400090937B0480937A04FE01329644C0FE019D
:10165000E20FF31F8193919322503109398328833C
:101660003AC02091780430917904232B41F42091E1
:101670000201309103013093790420937804209182
:101680000001309101012115310541F42DB73EB71C
:101690004091040150910501241B350BE091780421
:1016A000F0917904E217F307A0F42E1B3F0B2817E3
:1016B000390778F0AC014E5F5F4F2417350748F0CB
:1016C0004E0F5F1F50937904409378048193919358
:1016D00002C0E0E0F0E0CF01DF91CF910895CF9319
:1016E000DF93009709F487C0FC01329713821282BE
:1016F000C0917A04D0917B04209781F420813181BC
:10170000280F391F809178049091790482179307EC
:1017100079F5F0937904E09378046DC0DE0120E060
:1017200030E0AE17BF0750F412964D915C911397BD
:101730009D014115510509F1DA01F3CFB383A2836D
:1017400040815181840F951F8A179B0771F48D91F9
:101750009C911197840F951F029691838083129616
:101760008D919C911397938382832115310529F4E0
:10177000F0937B04E0937A043EC0D9011396FC9366
:10178000EE9312974D915D91A40FB51FEA17FB07D9
:1017900079F480819181840F951F0296D901119669
:1017A0009C938E938281938113969C938E93129730
:1017B000E0E0F0E08A819B81009719F0FE01EC01E6
:1017C000F9CFCE01029628813981820F931F209193
:1017D0007804309179042817390769F4309729F48F
:1017E00010927B0410927A0402C013821282D0936A
:1017F0007904C0937804DF91CF910895A0E0B0E020
:10180000E4E0FCE00C94DC0CEC01CB01209719F433
:101810000E94D70AB8C0FE01E60FF71F9E012250B2
:101820003109E217F30708F4ACC0D9010D911C91FE
:10183000119706171707B8F00530110508F49FC077
:10184000A801445051094617570708F498C00250A0
:101850001109061B170B019311936D937C93CF0114
:101860000E946F0B8CC05B01A01AB10A4E01800E62
:10187000911EA0917A04B0917B04612C712C60E0E0
:1018800070E0109709F449C0A815B905C9F5ED90A5
:10189000FC901197670142E0C40ED11CCA14DB040E
:1018A00078F147018A189B08640142E0C40ED11CFC
:1018B0001296BC9012971396AC91B5E0CB16D1045A
:1018C00040F0B282A38391828082D9018D939C9350
:1018D00009C00E5F1F4F0E0D1F1DF90111830083FC
:1018E000EB2DFA2F6115710531F0DB011396FC9396
:1018F000EE93129744C0F0937B04E0937A043FC0C8
:101900006D917C9111976616770608F43B01BD0135
:1019100012960D90BC91A02DB4CF60917804709177
:10192000790468157905E9F468167906D0F44091D0
:101930000001509101014115510541F44DB75EB7C9
:101940006091040170910501461B570BE417F507E0
:10195000C0F4F0937904E0937804F90191838083D3
:101960000EC00E94D70A7C01009759F0A801BE0161
:101970000E94C80CCE010E946F0BC70104C0CE01AB
:1019800002C080E090E0CDB7DEB7EEE00C94F80C3A
:10199000FB01DC0102C001900D9241505040D8F78C
:1019A0000895FB01DC0101900D920020E1F70895FC
:1019B0002F923F924F925F926F927F928F929F925F
:1019C000AF92BF92CF92DF92EF92FF920F931F934D
:1019D000CF93DF93CDB7DEB7CA1BDB0B0FB6F894FE
:1019E000DEBF0FBECDBF09942A88398848885F843E
:1019F0006E847D848C849B84AA84B984C884DF80AF
:101A0000EE80FD800C811B81AA81B981CE0FD11D92
:101A10000FB6F894DEBF0FBECDBFED010895F89468
:021A2000FFCFF6
:101A220000007C0480005465737420506172616D03
:101A320065746572733A005374617274696E6720DB
:101A420061646472657373203D200053445F426C8D
:101A52006F636B5F53697A65203D200053445F4298
:101A62006C6F636B5F546573745F436F756E742044
:101A72003D20000A496E697469616C697A696E6712
:101A820020534420636172642E2E2E00696E6974A5
:101A920069616C697A6174696F6E206661696C65EF
:101AA200642E205468696E677320746F20636865C2
:101AB200636B3A002A20697320612063617264209B
:101AC200697320696E7365727465643F002A2049E8
:101AD2007320796F757220776972696E6720636F00
:101AE20072726563743F002A2064696420796F759D
:101AF200206368616E676520746865206368697039
:101B020053656C6563742070696E20746F206D611B
:101B120074636820796F757220736869656C6420DC
:101B22006F72206D6F64756C653F00576972696EE4
:101B32006720697320636F727265637420616E64DB
:101B4200206120636172642069732070726573651D
:101B52006E742E0054657374206973206E6F742046
:101B620053455155454E5449414C00536574757067
:101B720020436F6D706C65746521003078000A74C3
:101B820079706520616E7920636861726163746542
:101B92007220746F2073746172740A00426C6F63F6
:101BA2006B206E756D626572200020646F65732014
:101BB2006E6F74206D617463682E200028657272E6
:101BC2006F722061742062797465202300290A00F3
:101BD200206D6174636865732E00BCA79510861929
:101BE2003749B5E3F0BAEEACE4189EF65242180853
:101BF20036B301F10AC3B7093ED8761879980B14A7
:101C0200CD0D14A27EBF525C6113182E54609BBB93
:101C12006B94F321C2521D6C73B186C6B64D8F8D83
:101C220095586691EE13B581FCD1FC7E2AC97CE100
:101C3200900FE1877D6D25102FA52BE2414EAAB0B2
:101C42002CC62343836B02EF9A7A8DE09DA08346D4
:101C5200F03A6D32924592BF534A000000002C05C3
:0A1C62009206AC04C704B9040A0599
:00000001FF
