:100000000C94E9000C94770E0C94A40E0C9411013E
:100010000C9411010C9411010C9411010C94110118
:100020000C9411010C9411010C9411010C94110108
:100030000C9411010C945D0A0C9411010C941101A3
:100040000C94E10E0C9411010C940A0C0C943C0CD1
:100050000C9411010C9411010C9411010C941101D8
:100060000C9442080C941101290A002C002D3E200A
:1000700028002000200048656164657220697320B3
:1000800070726F6365737365642E0A004672616DEA
:100090006520726174653F20283020666F7220737E
:1000A000746174696320696D616765290A00426C37
:1000B0006F636B206E756D6265723F0A00496D61FA
:1000C0006765206E756D6265723F0A00456E6974E2
:1000D00069616C697A696E6720696D616765207412
:1000E00061626C653A0A000A493243207265717593
:1000F000657374206576656E74210A000A4932437F
:100100002072656365697665206576656E74210A7F
:10011000005550444154450A09004C4153540A09C2
:1001200000494E49540A090057494E470A090048F8
:1001300045414445520A0900544558540A09000AE9
:1001400050726F63657373696E67207472616E734A
:100150006D697373696F6E3A0900205D5D5D0A0019
:10016000095B5B5B2052414D203D20004C6F616478
:1001700020436F6D706C65746521000000000800FD
:10018000020100000304070000000000000000015D
:10019000020408102040800102040810200102041B
:1001A00008102004040404040404040202020202ED
:1001B0000203030303030300000000250028002BB3
:1001C0000000000000240027002A00001606590A3B
:1001D0006C0C11241FBECFEFD8E0DEBFCDBF11E005
:1001E000A0E0B1E0E8E9F0E202C005900D92AE3582
:1001F000B107D9F726E0AEE5B1E001C01D92AB3FF3
:10020000B207E1F711E0C2EDD1E004C02297FE0190
:100210000E943810CC3CD107C9F70E94D20E0C9432
:100220004A100C940000E1E8F0E010821092850082
:100230001092840080914906806180830895FC01BA
:1002400020812EBDDC019B012150310951F0119616
:100250005C9111970DB407FEFDCF4EB55EBD4D9379
:10026000F3CFFB013197E80FF91F0DB407FEFDCF67
:100270008EB58083089526E00C948C0B8EBD000013
:100280000DB407FEFDCF8EB50895CF93DF9300D058
:10029000CDB7DEB72091F7063091F806211531056C
:1002A00011F42BEF36E0CE010196821B930B0F90D9
:1002B0000F90DF91CF9108958053873330F4E82F6A
:1002C000F0E0EA5FFE4F808108958FEF0895DF929E
:1002D000EF92FF920F931F93CF93DF938C01F62E33
:1002E000C0E0D0E0E12CD801ED91FC910480F581D3
:1002F000E02DC80109950297B4F3D801ED91FC9166
:100300000680F781E02DC8010995D82EFF2019F04D
:10031000BFEF8B1741F388E0E81609F476C08E151D
:1003200038F0EE2071F092E0E91609F465C0A5C03E
:10033000AAE0EA1609F474C0B0E1EB1609F485C02E
:100340009CC080E3D81679F0D8160CF48FC099E3DE
:100350009D150CF48BC08D2D0E945C01C82FD0E040
:100360004AE0E42E83C0D801ED91FC910084F18530
:10037000E02DC8010995883519F18CF48234A9F073
:100380008F3449F1833281F5D801ED91FC910680DB
:10039000F781E02DC80109955AE0E52EA4CF8F36EC
:1003A000D1F0883769F08236F9F4D801ED91FC91EB
:1003B0000680F781E02DC801099572E0E72E93CF02
:1003C000D801ED91FC910680F781E02DC8010995D7
:1003D00060E1E62E88CFD801ED91FC910680F7818F
:1003E000E02DC80109954EC0992787FD9095C097CB
:1003F0000A9708F447C044C08D2D0E945C018230EA
:1004000008F03EC0CC0FDD1F30C08D2D0E945C0176
:100410008830B0F523E0CC0FDD1F2A95E1F725C029
:100420002D2D332727FD3095205331092A303105F2
:1004300038F5CE01E89EE001E99ED00D11248D2D06
:100440000E945C01C80FD11D11C08D2D992787FD19
:1004500090950E943C10892B99F094E0CC0FDD1F01
:100460009A95E1F78D2D0E945C01C82BF1103BCFCE
:100470009FEFD91238CF8FEF08C08FEF9FEF05C0E5
:10048000CE0103C088E0E82E2ECFDF91CF911F91DF
:100490000F91FF90EF90DF900895813011F45D9AF5
:1004A00008955D980895FC01608358B1677021E05C
:1004B00030E0F90102C0EE0FFF1F6A95E2F74FE04E
:1004C0004E27452B48B948B1FC018081877001C097
:1004D000220F8A95EAF72095242328B981E00C940D
:1004E0004D0228B1FC013081377081E090E001C0FD
:1004F000880F3A95EAF7282B28B980E00C944D0232
:10050000EF92FF920F931F93CF93DF931F92CDB77C
:10051000DEB7E0905E01F0905F01F701EE57FA4F11
:100520008081882309F46CC00091600110E0F8011B
:10053000E359FE4F6081CE0101960E94530283E091
:100540000E943E01C801880F991F800F911F63E030
:1005500070E08F599E4F0E941F0122E034E0E29E1E
:10056000C001E39E900DF29E900D112460E074E0B6
:1005700080589E4F0E941F01CE0101960E94710279
:100580002FB7F8948091600190E0FC01EE0FFF1FFF
:10059000E80FF91FEF59FE4F80819181A281B3814D
:1005A000BB279C5FAF4FBF4F80839183A2832FBF38
:1005B0004FB7F89420915E0130915F0182E094E0A2
:1005C000289FF001299FF00D389FF00D1124E2586B
:1005D000FE4F118210824FBF20915E0130915F016A
:1005E000C901019690935F0180935E01F901EE5776
:1005F000FA4F1082892B21F010925F0110925E0158
:100600000F90DF91CF911F910F91FF90EF90089580
:100610000E94800280E298E00C94370FEF92FF92E4
:100620000F931F93CF93DF93CDB7DEB72D970FB600
:10063000F894DEBF0FBECDBF8C0140E855E260E00C
:1006400070E08DE496E00E943B016FE371E08DE481
:1006500096E00E94ED0C8DE496E00E94EE0B1A8667
:100660001B861C86F8018081823009F458C038F45A
:10067000882309F46DC1813009F473C086C18430C8
:1006800009F471C108F4FEC0853009F07EC140E86C
:1006900055E260E070E08DE496E00E943B0161E18C
:1006A00071E08DE496E00E94ED0C8DE496E00E94EE
:1006B000EE0BF801818180937501F8E08F9FC001F6
:1006C0001124A0E0B0E089839A83AB83BC8360915E
:1006D0006D01CE0107960E94530283E00E943E0105
:1006E00063E070E0CE0101960E941F0168E070E0B7
:1006F00086E791E00E941F01CE0107960E947102D9
:100700008091760182958F708093600110927401C0
:1007100010927301109272011092710136C140E87B
:1007200055E260E070E08DE496E00E943B0168E3F2
:1007300071E08DE496E00E94ED0C8DE496E00E945D
:10074000EE0B40E855E260E070E08DE496E00E9438
:100750003B01B8016F5F7F4F8DE496E00E94120D60
:1007600010C140E855E260E070E08DE496E00E9440
:100770003B016FE271E08DE496E00E94ED0C8DE4A8
:1007800096E00E94EE0B86E0F8013196DE011196AC
:1007900001900D928A95E1F7F801228122952F7040
:1007A000818180937501209360014B815C816D8113
:1007B0007E8140937A0150937B0160937C0170931A
:1007C0007D01322F3295307F9A819F70932B9A83CF
:1007D0009093760130E0F901EE0FFF1FE20FF31F57
:1007E000EF59FE4F20813181428120937701309370
:1007F000780140937901F8E08F9FC0011124A0E0B7
:10080000B0E08F839887A987BA8760916D01CE0188
:100810000D960E94530282E00E943E0163E070E068
:10082000CE0107960E941F0168E070E086E791E024
:100830000E941F01CE010D960E9471024091750128
:1008400050E04F5F5F4F63E0440F551F6A95E1F73B
:1008500060E070E08091610190916201A09163017C
:10086000B0916401BB2784179507A607B70708F066
:100870008CC0DB01CA018093610190936201A09357
:10088000630183C040E855E260E070E08DE496E0EB
:100890000E943B0168E271E08DE496E00E94ED0C5D
:1008A0008DE496E00E94EE0B8091760182958F7028
:1008B00090E0FC01EE0FFF1FE80FF91FEF59FE4F0C
:1008C0002081318142812A873B874C87F801E18072
:1008D000F4E0EF9E70011124E0916001F0E0E35933
:1008E000FE4F6081CE0101960E94530282E00E9479
:1008F0003E0163E070E0CE010A960E941F01E11400
:10090000F10429F0B701C80104960E941F01CE012D
:1009100001960E9471022091600130E0F80141814E
:10092000F4E04F9FA00111248A859B85AC85BD858D
:10093000BB27840F951FA11DB11DF901EE0FFF1FED
:10094000E20FF31FEF59FE4F80839183A2831DC0F6
:1009500040E855E260E070E08DE496E00E943B01E3
:1009600061E271E00AC040E855E260E070E08DE4C9
:1009700096E00E943B016AE171E08DE496E00E94FE
:10098000ED0C8DE496E00E94EE0B2D960FB6F894D8
:10099000DEBF0FBECDBFDF91CF911F910F91FF90B2
:1009A000EF9008950F931F93CF93DF93CDB7DEB7EA
:1009B000A0970FB6F894DEBF0FBECDBF8C0140E804
:1009C00055E260E070E08DE496E00E943B016CEF40
:1009D00070E08DE496E00E94ED0C8DE496E00E94BC
:1009E000EE0BA801BE016F5F7F4F82EF95E00E9482
:1009F000340ECE0101960E940E03A0960FB6F89415
:100A0000DEBF0FBECDBFDF91CF911F910F91089533
:100A10000F931F93CF93DF93CDB7DEB7A0970FB699
:100A2000F894DEBF0FBECDBF40E855E260E070E055
:100A30008DE496E00E943B016CEC70E08DE496E062
:100A40000E94ED0C8DE496E00E94EE0B81E089831C
:100A500000E010E01D821C821F821E821B820A831E
:100A6000CE0101960E940E030F5F1F4F011581E01A
:100A7000180781F7A0960FB6F894DEBF0FBECDBF62
:100A8000DF91CF911F910F9108958FB7F894559AE8
:100A90008FBF8FB7F8943F9A8FBF209183059FB780
:100AA000F89487B1822B87B99FBF81E00E944D02E5
:100AB000479A88B190918305892B88B90895813030
:100AC00011F45E9A08955E9808950F931F93CF9343
:100AD000DF930DB407FEFDCF80E00E944D028091B0
:100AE00080059091810502E014E0809F9001819F34
:100AF000300D909F300D1124F901E258FE4F808196
:100B000091819927EC01CC0FDD1FCC0FDD1FC20FA7
:100B1000D31FC058DE4F0196918380835F9A80E097
:100B20000E945F0588810E943E0189810E943E01EA
:100B300081E00E945F0580E00E945F058A810E943B
:100B40003E018B810E943E0181E00E945F0580E0B2
:100B50000E945F055F982091800530918105209F5C
:100B6000F001219FF00D309FF00D1124E258FE4F4F
:100B7000808191818F3F910509F008F446C08091F2
:100B800073019091740101969093740180937301A5
:100B900040917C0150917D0184179507B0F110922E
:100BA000740110927301C90101969093810580939D
:100BB0008005F901EE57FA4F81E080838091710141
:100BC000909172010196909372018093710120912E
:100BD0007A0130917B0182179307B8F0109272016D
:100BE000109271018091600190E0FC01EE0FFF1FF7
:100BF000E80FF91FEF59FE4F80917701909178012E
:100C0000A091790180839183A28380918005909146
:100C10008105892B21F0109281051092800581E0D9
:100C2000DF91CF911F910F910C944D02109277019B
:100C3000109278011092790182E080936D01809189
:100C4000830594E090936E0198E090936F019093E8
:100C500070018E6080938305E1E6F1E010821182DD
:100C600012821382138214821582168216821782D0
:100C700010861186118612861386148608958DE4D7
:100C800096E00E94050B40E855E260E070E08DE4DC
:100C900096E00E943B0160E671E08DE496E00E94E0
:100CA000ED0C0E9445014AE050E0BC018DE496E065
:100CB0000E94E40D6AE571E08DE496E00E94ED0C7F
:100CC0008DE496E00C94050B8F929F92AF92BF92A9
:100CD000CF92DF92EF92FF920F931F93CF93DF9308
:100CE000CDB7DEB7C054D1090FB6F894DEBF0FBE42
:100CF000CDBF40E855E260E070E08DE496E00E94F0
:100D00003B016DEB70E08DE496E00E942F0D61E0F9
:100D10008DE496E00E946701F82E6EEA70E08DE4A3
:100D200096E00E942F0D61E08DE496E00E9467013D
:100D3000E82E6CE870E08DE496E00E942F0D61E0F3
:100D40008DE496E00E9467018C018DE496E00E949C
:100D5000EE0B81E089A31DA21CA211271FA30EA3E5
:100D6000E294B0EFEB22EBA2FAA2CE0181960E94B0
:100D70000E0340E855E260E070E08DE496E00E94EA
:100D80003B0166E770E08DE496E00E94ED0C8DE497
:100D900096E00E94EE0B83E089838DE496E00E944A
:100DA000A90A18161906CCF78E010F5F1F4FE12C08
:100DB000F12C480140E855E260E070E08DE496E0F7
:100DC0000E943B01C12CD12C8DE496E00E94A90A1F
:100DD00018161906CCF761E08DE496E00E946701D1
:100DE0005801AC0CBD1CF501848364E770E08DE410
:100DF00096E00E94ED0C40E150E0F50164818DE445
:100E000096E00E94F90D62E770E08DE496E00E94A2
:100E1000ED0CFFEFCF1ADF0A84E0C816D104A1F66B
:100E20006DE670E08DE496E00E94ED0C4AE050E043
:100E3000B7018DE496E00E94000E6BE670E08DE451
:100E400096E00E94ED0C6CA17DA14AE050E08DE49B
:100E500096E00E94000E68E670E08DE496E00E9445
:100E6000ED0C8DE496E00E94EE0B2A812F5F2A8321
:100E7000EFEFEE1AFE0A0C5F1F4FF7E0EF16F104DA
:100E800009F098CFC4010E940E03C05CDF4F0FB67B
:100E9000F894DEBF0FBECDBFDF91CF911F910F91B0
:100EA000FF90EF90DF90CF90BF90AF909F908F908A
:100EB0000895AF92BF92CF92DF92EF92FF920F937D
:100EC0001F93CF93DF938FB7F8945B9853988FBF9E
:100ED0008FB7F894569A8FBF8FB7F894579A8FBFF1
:100EE0005F9A0E94840A8CB58C7F8CBD8DB5816021
:100EF0008DBD8CB580628CBD0E9445050E940805A1
:100F000040E855E260E070E08DE496E00E943B012D
:100F1000C1E8D0E010E1A12EA88200E8C02ED12CBB
:100F2000F601108284E08093490682E19AE790936B
:100F30004B0680934A0626E8E22EF12CF7019183B6
:100F4000808384E188838FE396E0909348068093C2
:100F500047060FE610E0BB24B394F801B0820E946C
:100F600064066CE671E08DE496E00E942F0D61E06E
:100F700070E082EF95E00E94520A62ED74E082EF29
:100F800095E00E94540A42E050E063E171E081E0A4
:100F90000E94570EA882F6011082B092490680E1A5
:100FA00094E090934B0680934A06F70191838083E7
:100FB00081E1888385E695E0909348068093470613
:100FC000F801B082DF91CF911F910F91FF90EF90C8
:100FD000DF90CF90BF90AF9008951092F10581E01F
:100FE0008093EF051092EE0561E082E10E94DE0F32
:100FF00061E083E10E94DE0FE9EBF0E080818E7F0B
:10100000808380818D7F808388E48093B80085E42D
:101010008093BC000895880F8093BA0008956132D0
:1010200098F42091F105243089F46093A605FC0121
:1010300088EA95E0DC012A2F281B261718F4219155
:101040002D93F9CF80E0089581E0089582E008951E
:101050009093EB058093EA0508959093ED058093B6
:10106000EC05089585ED8093BC008091BC0084FD63
:10107000FCCF1092F105089585EC8093BC0010928E
:10108000F10508951F920F920FB60F9211242F931E
:101090003F934F935F936F937F938F939F93AF9300
:1010A000BF93EF93FF938091B900887F803609F456
:1010B0009CC068F5883209F45BC090F4803109F473
:1010C00054C038F4882309F4F5C0883009F44DC0C1
:1010D000F5C0883109F44CC0803209F45DC0EEC01F
:1010E000803409F468C048F4803309F455C088336B
:1010F00009F0E4C080938405A8C0803509F44FC08E
:10110000883509F45DC0883409F0D8C0D5C0883965
:1011100009F4C6C0A8F4883709F467C038F48836E3
:1011200009F463C0803709F460C0C8C0883809F486
:10113000B7C0803909F45FC0803809F0BFC05BC018
:10114000803B09F485C038F4803A09F466C0883AD7
:1011500009F47EC0B3C0803C09F4A6C0883C09F401
:10116000A3C0883B09F489C0A9C08091F00510C0D4
:101170009091C9058091C805981770F5E091C9054F
:1011800081E08E0F8093C905F0E0E653FA4F80812D
:101190008093BB0085EC85C0809384058DC0E09171
:1011A000C90581E08E0F8093C9058091BB00F0E0F6
:1011B000E653FA4F80839091C9058091C8056DC0B0
:1011C000E091C90581E08E0F8093C9058091BB0035
:1011D000F0E0E653FA4F80838091EF0581116CC0F7
:1011E00081E08093EE0584EA60C083E08093F1059E
:1011F00010928505CFCF80918505803208F050C0D0
:10120000E091850581E08E0F809385058091BB007C
:10121000F0E0EA57FA4F8083BDCF80918505803298
:1012200030F4E0918505F0E0EA57FA4F10820E9411
:1012300032086091850570E0E091EA05F091EB05D8
:1012400086E895E00995109285050E943C0836C015
:1012500084E08093F1051092A7051092A605E09115
:10126000EC05F091ED0509958091A605811105C069
:1012700081E08093A6051092A805E091A70581E082
:101280008E0F8093A705F0E0E855FA4F8081809398
:10129000BB009091A7058091A605981708F47ACF16
:1012A00085E88093BC000AC085EC8093BC00109256
:1012B000F10504C0109284050E943208FF91EF915D
:1012C000BF91AF919F918F917F916F915F914F915E
:1012D0003F912F910F900FBE0F901F901895809106
:1012E000250690E020912606821B91090895209101
:1012F000260680912506281750F4E22FF0E0E95DDC
:10130000F94F808190E02F5F2093260608958FEF9C
:101310009FEF0895E091260680912506E81730F4A6
:10132000F0E0E95DF94F808190E008958FEF9FEF45
:1013300008950895E091FE05F091FF053097E1F0E2
:1013400030912606209125063217B0F040E0242F78
:1013500030E02617370754F4DC01A20FB31F5C916D
:10136000D901A95DB94F5C934F5FF1CF109226066A
:1013700060932506CB0109940895E0910006F09151
:101380000106309729F01092040610920306099482
:101390000895CF92DF92EF92FF920F931F93CF9316
:1013A000DF937C01CB018A0120910206222389F080
:1013B000EB016B01C40ED51ECC15DD0569F06991FA
:1013C000D701ED91FC910190F081E02DC7010995C5
:1013D000F3CF642F0E940F08C801DF91CF911F91B6
:1013E0000F91FF90EF90DF90CF900895CF93DF9310
:1013F0001F92CDB7DEB76983209102062223D1F078
:1014000020910306203240F021E030E0FC013383DC
:10141000228380E090E015C080910406E82FF0E080
:10142000EB5FF94F998190838F5F809304068093DF
:10143000030605C061E0CE0101960E940F0881E01D
:1014400090E00F90DF91CF910895FC0113821282FA
:1014500048EE53E060E070E0448355836683778311
:1014600081E491E091838083089510922606109282
:10147000250610920406109203060C94ED07CF93F4
:10148000DF93EC01862F0E940B088DEB99E00E9400
:101490002D088AE999E00E942808CE01DF91CF91BA
:1014A0000C94350A0C943F0A7093FF056093FE0577
:1014B000089582EF95E00C94250A1F920F920FB6C3
:1014C0000F9211242F933F934F935F936F937F93CA
:1014D0008F939F93AF93BF93EF93FF93E091470652
:1014E000F09148060995FF91EF91BF91AF919F91BF
:1014F0008F917F916F915F914F913F912F910F90BD
:101500000FBE0F901F901895CF93CFB7F89480918E
:101510004C06811116C061E08AE00E94DE0F61E096
:101520008AE00E94A50F8CB580618CBD8CB580646B
:101530008CBD61E08DE00E94A50F61E08BE00E9410
:10154000A50F80914C068F5F80934C06CFBFCF9143
:101550000895FC01818D228D90E0805C9F4F821B5D
:1015600091098F7399270895FC01918D828D9817A9
:1015700031F0828DE80FF11D858D90E008958FEF99
:101580009FEF0895FC01918D828D981761F0828DF7
:10159000DF01A80FB11D5D968C91928D9F5F9F73A7
:1015A000928F90E008958FEF9FEF089582E69CE080
:1015B000892B49F080E090E0892B29F00E94620C91
:1015C00081110C9400000895FC01848DDF01A80FA7
:1015D000B11DA35ABF4F2C91848D90E001968F735B
:1015E0009927848FA689B7892C93A089B1898C917A
:1015F00080648C93938D848D981306C00288F38940
:10160000E02D80818F7D80830895CF93DF93EC015F
:10161000888D8823C9F0EA89FB89808185FD05C012
:10162000A889B9898C9186FD0FC00FB607FCF5CF4C
:10163000808185FFF2CFA889B9898C9185FFEDCF94
:10164000CE010E94E40AE7CFDF91CF910895CF92B7
:10165000DF92FF920F931F93CF93DF931F92CDB72B
:10166000DEB76C01DC015B969C915B975C968C917C
:101670005C97981307C05096ED91FC91519780812B
:1016800085FD32C0F601038D10E00F5F1F4F0F7311
:101690001127F02EF601848DF81211C00FB607FC49
:1016A000F9CFD6015096ED91FC915197808185FF3D
:1016B000F1CFC60169830E94E40A6981EBCF838D73
:1016C000E80FF11DE35AFF4F6083D6015B960C9340
:1016D0005B975296ED91FC91539780818062808355
:1016E00081E058968C930DC0D6015696ED91FC91F1
:1016F000579760835096ED91FC915197808180645B
:10170000808381E090E00F90DF91CF911F910F9146
:10171000FF90DF90CF900895BF92CF92DF92EF922B
:10172000FF92CF93DF93EC016A017B01B22EE8892F
:10173000F98982E08083411581EE580761057105C2
:10174000A1F060E079E08DE390E0A70196010E94AE
:101750001410215031094109510956954795379583
:101760002795211580E1380798F0E889F9891082DA
:1017700060E874E88EE190E0A70196010E941410E1
:1017800021503109410951095695479537952795BB
:10179000EC85FD853083EE85FF852083188EEC89EE
:1017A000FD89B082EA89FB89808180618083EA8932
:1017B000FB89808188608083EA89FB8980818068D9
:1017C0008083EA89FB8980818F7D8083DF91CF913F
:1017D000FF90EF90DF90CF90BF900895FC01938D24
:1017E000848D9813FCCFA289B3898C918F7E8C93C2
:1017F000A289B3898C91877F8C93A289B3898C91BC
:101800008F778C93A289B3898C918F7D8C93828DF5
:10181000818F08951F920F920FB60F9211242F936C
:101820008F939F93EF93FF93E0915D06F0915E0697
:101830008081E0916306F091640682FD12C0908180
:10184000809166068F5F8F7320916706821751F033
:10185000E0916606F0E0E35BF94F958F80936606B2
:1018600001C08081FF91EF919F918F912F910F90F7
:101870000FBE0F901F9018951F920F920FB60F92E8
:1018800011242F933F934F935F936F937F938F9385
:101890009F93AF93BF93EF93FF938DE496E00E94E5
:1018A000E40AFF91EF91BF91AF919F918F917F914A
:1018B0006F915F914F913F912F910F900FBE0F90BD
:1018C0001F9018958DE496E00E94A90A21E0892BCB
:1018D00009F420E0822F08951092500610924F06CE
:1018E00088EE93E0A0E0B0E080935106909352061A
:1018F000A0935306B093540681E591E090934E0671
:1019000080934D0685EC90E090935A06809359069B
:1019100084EC90E090935C0680935B0680EC90E012
:1019200090935E0680935D0681EC90E09093600654
:1019300080935F0682EC90E090936206809361064C
:1019400086EC90E09093640680936306109266069E
:101950001092670610926806109269060895CF9259
:10196000DF92EF92FF920F931F93CF93DF936C015F
:101970007A01EB01E60EF71E00E010E0CE15DF0560
:1019800061F06991D601ED91FC910190F081E02D1B
:10199000C6010995080F191FF1CFC801DF91CF913A
:1019A0001F910F91FF90EF90DF90CF9008956115F8
:1019B000710581F0DB010D900020E9F7AD01415088
:1019C0005109461B570BDC01ED91FC910280F3811C
:1019D000E02D099480E090E00895EF92FF920F933C
:1019E0001F93CF93DF938C01FB01C0E0D0E06491A3
:1019F0007F018FEFE81AF80A662361F0D801ED91B4
:101A0000FC910190F081E02DC8010995C80FD91F04
:101A1000F701EDCFCE01DF91CF911F910F91FF9094
:101A2000EF9008950C94D70CDC01ED91FC9101909E
:101A3000F081E02D09940F931F93CF93DF93EC0176
:101A40006DE00E94140D8C016AE0CE010E94140D1D
:101A5000800F911FDF91CF911F910F9108950F93E8
:101A60001F93CF93DF93EC010E94ED0C8C01CE010C
:101A70000E941B0D800F911FDF91CF911F910F913D
:101A800008958F929F92AF92BF92CF92DF92EF9282
:101A9000FF920F931F93CF93DF93CDB7DEB7A1973C
:101AA0000FB6F894DEBF0FBECDBF7C01C42EE52F6C
:101AB000CB01D22E19A221E02D1510F02AE0D22E52
:101AC0008E010F5D1F4F8D2C912CA12CB12C6C2DF4
:101AD0007E2FA50194010E9414108C2DD29E801996
:101AE0001124015011098A3014F4805D01C0895C11
:101AF000F8018083211531054105510521F0C22EE1
:101B0000E32FCA01E4CFB801C7010E94D70CA19608
:101B10000FB6F894DEBF0FBECDBFDF91CF911F91FE
:101B20000F91FF90EF90DF90CF90BF90AF909F907C
:101B30008F900895CF92DF92EF92FF920F931F93B1
:101B4000CF93DF93EC016A017B012115310579F414
:101B5000E881F9810190F081E02D642FDF91CF9130
:101B60001F910F91FF90EF90DF90CF9009942A3052
:101B70003105E9F477FF1AC06DE20E94140D8C0163
:101B800044275527BA014C195D096E097F092AE0DF
:101B9000CE010E94410D800F911FDF91CF911F91C7
:101BA0000F91FF90EF90DF90CF9008952AE0B7015A
:101BB000A601CE01DF91CF911F910F91FF90EF9081
:101BC000DF90CF900C94410D9A01AB01662757FD31
:101BD0006095762F0C949A0D2115310541F4DC01A6
:101BE000ED91FC910190F081E02D642F09940C940B
:101BF000410D9A01462F50E060E070E00C94EC0D2E
:101C00009A01AB0160E070E00C94EC0D0F931F9310
:101C1000CF93DF93EC010E942B0F688779878A8727
:101C20009B87E881F9810680F781E02DCE01099537
:101C300097FF15C00E942B0F088519852A853B85C3
:101C4000601B710B820B930B0C811D812E813F81D8
:101C5000601771078207930720F38FEF9FEFDF91E3
:101C6000CF911F910F910895CF92DF92EF92FF9243
:101C70000F931F93CF93DF937C016A01EB0100E088
:101C800010E00C151D0549F0C7010E94060E97FDD6
:101C900004C089930F5F1F4FF4CFC801DF91CF912C
:101CA0001F910F91FF90EF90DF90CF9008958230B9
:101CB000E8F4E82FF0E0EE0FFF1FE651F94F7183D3
:101CC0006083813041F0809169008C7F842B809308
:101CD0006900E89A089580916900440F551F440FE8
:101CE000551F837F842B80936900E99A08951F9282
:101CF0000F920FB60F9211242F933F934F935F9340
:101D00006F937F938F939F93AF93BF93EF93FF93C3
:101D10008091EA069091EB06892B29F0E091EA0682
:101D2000F091EB060995FF91EF91BF91AF919F91D3
:101D30008F917F916F915F914F913F912F910F9074
:101D40000FBE0F901F9018951F920F920FB60F9213
:101D500011242F933F934F935F936F937F938F93B0
:101D60009F93AF93BF93EF93FF938091EC06909175
:101D7000ED06892B29F0E091EC06F091ED0609952E
:101D8000FF91EF91BF91AF919F918F917F916F9153
:101D90005F914F913F912F910F900FBE0F901F9029
:101DA000189508950E94410F0E94D10E0E94590774
:101DB000C6EDDAE00E9408032097E1F30E94D60AFC
:101DC000F9CF1F920F920FB60F9211242F933F93CA
:101DD0008F939F93AF93BF938091EF069091F006FE
:101DE000A091F106B091F2063091EE0623E0230FA8
:101DF0002D3720F40196A11DB11D05C026E8230F43
:101E00000296A11DB11D2093EE068093EF069093DC
:101E1000F006A093F106B093F2068091F30690913C
:101E2000F406A091F506B091F6060196A11DB11D2C
:101E30008093F3069093F406A093F506B093F6060C
:101E4000BF91AF919F918F913F912F910F900FBEB6
:101E50000F901F9018952FB7F8946091EF0670912E
:101E6000F0068091F1069091F2062FBF0895019738
:101E700039F0880F991F880F991F02970197F1F782
:101E80000895789484B5826084BD84B5816084BDF2
:101E900085B5826085BD85B5816085BDEEE6F0E0E3
:101EA000808181608083E1E8F0E01082808182603F
:101EB0008083808181608083E0E8F0E080818160C0
:101EC0008083E1EBF0E0808184608083E0EBF0E0F0
:101ED000808181608083EAE7F0E080818460808394
:101EE000808182608083808181608083808180683E
:101EF00080831092C1000895833081F028F48130EE
:101F000099F08230A1F008958730A9F08830B9F0B7
:101F10008430D1F4809180008F7D03C08091800057
:101F20008F7780938000089584B58F7702C084B541
:101F30008F7D84BD08958091B0008F7703C080911C
:101F4000B0008F7D8093B0000895CF93DF9390E031
:101F5000FC01E157FE4F2491FC01ED55FE4F8491A9
:101F6000882349F190E0880F991FFC01EF53FE4F41
:101F7000A591B49189549E4FFC01C591D4919FB70E
:101F8000611108C0F8948C91209582238C938881EC
:101F900082230AC0623051F4F8948C91322F30952C
:101FA00083238C938881822B888304C0F8948C913E
:101FB000822B8C939FBFDF91CF9108950F931F9336
:101FC000CF93DF931F92CDB7DEB7282F30E0F90112
:101FD000E558FE4F8491F901E157FE4F1491F90144
:101FE000ED55FE4F04910023C9F0882321F0698349
:101FF0000E947C0F6981E02FF0E0EE0FFF1FE95493
:10200000FE4FA591B4919FB7F8948C91611103C0D4
:102010001095812301C0812B8C939FBF0F90DF917E
:10202000CF911F910F910895A1E21A2EAA1BBB1BFD
:10203000FD010DC0AA1FBB1FEE1FFF1FA217B30794
:10204000E407F50720F0A21BB30BE40BF50B661FAA
:10205000771F881F991F1A9469F76095709580956E
:1020600090959B01AC01BD01CF010895EE0FFF1FBC
:102070000590F491E02D0994911109C080538A5084
:1020800028F0865C806281568650B8F708959927BB
:0820900088270895F894FFCFA2
:102098000000FB068000000102030405060708088B
:1020A800FFFFFFFFFFFFFF0A0B0C0D0E0FFFFFFFE7
:1020B800FFFFFFFFFFFFFFFFFFFFFFFFFFFFFFFF28
:1020C800FFFFFFFFFFFFFF0A0B0C0D0E0F000000C4
:1020D80000F609C9096F0977098A099909000000FA
:0E20E80000270BAF0CA90AC20AB40A050B00B0
:00000001FF
